{
  "contractName": "EventTicketingSystem",
  "abi": [
    {
      "inputs": [
        {
          "internalType": "string",
          "name": "_eventName",
          "type": "string"
        },
        {
          "internalType": "uint256",
          "name": "_maxTickets",
          "type": "uint256"
        },
        {
          "internalType": "address",
          "name": "_organizer",
          "type": "address"
        }
      ],
      "stateMutability": "nonpayable",
      "type": "constructor"
    },
    {
      "inputs": [],
      "name": "eventName",
      "outputs": [
        {
          "internalType": "string",
          "name": "",
          "type": "string"
        }
      ],
      "stateMutability": "view",
      "type": "function"
    },
    {
      "inputs": [],
      "name": "maxTickets",
      "outputs": [
        {
          "internalType": "uint256",
          "name": "",
          "type": "uint256"
        }
      ],
      "stateMutability": "view",
      "type": "function"
    },
    {
      "inputs": [],
      "name": "organizer",
      "outputs": [
        {
          "internalType": "address",
          "name": "",
          "type": "address"
        }
      ],
      "stateMutability": "view",
      "type": "function"
    },
    {
      "inputs": [],
      "name": "getEventDetails",
      "outputs": [
        {
          "internalType": "string",
          "name": "",
          "type": "string"
        },
        {
          "internalType": "uint256",
          "name": "",
          "type": "uint256"
        },
        {
          "internalType": "address",
          "name": "",
          "type": "address"
        }
      ],
      "stateMutability": "view",
      "type": "function"
    }
  ],
  "bytecode": "0x60806040523480156200001157600080fd5b506040516200087c3803806200087c8339818101604052810190620000379190620001f1565b82600090805190602001906200004f929190620000a1565b508160018190555080600260006101000a81548173ffffffffffffffffffffffffffffffffffffffff021916908373ffffffffffffffffffffffffffffffffffffffff16021790555050505062000403565b828054620000af906200033b565b90600052602060002090601f016020900481019282620000d357600085556200011f565b82601f10620000ee57805160ff19168380011785556200011f565b828001600101855582156200011f579182015b828111156200011e57825182559160200191906001019062000101565b5b5090506200012e919062000132565b5090565b5b808211156200014d57600081600090555060010162000133565b5090565b600062000168620001628462000294565b62000260565b9050828152602081018484840111156200018157600080fd5b6200018e84828562000305565b509392505050565b600081519050620001a781620003cf565b92915050565b600082601f830112620001bf57600080fd5b8151620001d184826020860162000151565b91505092915050565b600081519050620001eb81620003e9565b92915050565b6000806000606084860312156200020757600080fd5b600084015167ffffffffffffffff8111156200022257600080fd5b6200023086828701620001ad565b93505060206200024386828701620001da565b9250506040620002568682870162000196565b9150509250925092565b6000604051905081810181811067ffffffffffffffff821117156200028a5762000289620003a0565b5b8060405250919050565b600067ffffffffffffffff821115620002b257620002b1620003a0565b5b601f19601f8301169050602081019050919050565b6000620002d482620002db565b9050919050565b600073ffffffffffffffffffffffffffffffffffffffff82169050919050565b6000819050919050565b60005b838110156200032557808201518184015260208101905062000308565b8381111562000335576000848401525b50505050565b600060028204905060018216806200035457607f821691505b602082108114156200036b576200036a62000371565b5b50919050565b7f4e487b7100000000000000000000000000000000000000000000000000000000600052602260045260246000fd5b7f4e487b7100000000000000000000000000000000000000000000000000000000600052604160045260246000fd5b620003da81620002c7565b8114620003e657600080fd5b50565b620003f481620002fb565b81146200040057600080fd5b50565b61046980620004136000396000f3fe608060405234801561001057600080fd5b506004361061004c5760003560e01c806361203265146100515780638043c9c01461006f5780639b8947031461008d578063e2bb3ccf146100ab575b600080fd5b6100596100cb565b60405161006691906102a0565b60405180910390f35b6100776100f1565b60405161008491906102bb565b60405180910390f35b61009561017f565b6040516100a2919061031b565b60405180910390f35b6100b3610185565b6040516100c2939291906102dd565b60405180910390f35b600260009054906101000a900473ffffffffffffffffffffffffffffffffffffffff1681565b600080546100fe906103c1565b80601f016020809104026020016040519081016040528092919081815260200182805461012a906103c1565b80156101775780601f1061014c57610100808354040283529160200191610177565b820191906000526020600020905b81548152906001019060200180831161015a57829003601f168201915b505050505081565b60015481565b60606000806000600154600260009054906101000a900473ffffffffffffffffffffffffffffffffffffffff168280546101be906103c1565b80601f01602080910402602001604051908101604052809291908181526020018280546101ea906103c1565b80156102375780601f1061020c57610100808354040283529160200191610237565b820191906000526020600020905b81548152906001019060200180831161021a57829003601f168201915b50505050509250925092509250909192565b61025281610352565b82525050565b600061026382610336565b61026d8185610341565b935061027d81856020860161038e565b61028681610422565b840191505092915050565b61029a81610384565b82525050565b60006020820190506102b56000830184610249565b92915050565b600060208201905081810360008301526102d58184610258565b905092915050565b600060608201905081810360008301526102f78186610258565b90506103066020830185610291565b6103136040830184610249565b949350505050565b60006020820190506103306000830184610291565b92915050565b600081519050919050565b600082825260208201905092915050565b600061035d82610364565b9050919050565b600073ffffffffffffffffffffffffffffffffffffffff82169050919050565b6000819050919050565b60005b838110156103ac578082015181840152602081019050610391565b838111156103bb576000848401525b50505050565b600060028204905060018216806103d957607f821691505b602082108114156103ed576103ec6103f3565b5b50919050565b7f4e487b7100000000000000000000000000000000000000000000000000000000600052602260045260246000fd5b6000601f19601f830116905091905056fea2646970667358221220ef4aa68e4ae9521e56b608c3d8476419bca2b5a8a47cb18b572efdfe2c168a8a64736f6c63430008000033",
  "immutableReferences": {},
  "source": "// SPDX-License-Identifier: MIT\r\npragma solidity ^0.8.0;\r\n\r\ncontract EventTicketingSystem {\r\n    string public eventName;\r\n    uint256 public maxTickets;\r\n    address public organizer; // Example of an additional parameter.\r\n\r\n    // Constructor with 3 parameters (eventName, maxTickets, and organizer)\r\n    constructor(string memory _eventName, uint256 _maxTickets, address _organizer) {\r\n        eventName = _eventName;\r\n        maxTickets = _maxTickets;\r\n        organizer = _organizer;\r\n    }\r\n    \r\n    // Example function to return event details\r\n    function getEventDetails() public view returns (string memory, uint256, address) {\r\n        return (eventName, maxTickets, organizer);\r\n    }\r\n}\r\n",
  "sourcePath": "D:\\EventTicketingSystem\\contracts\\EventTicketingSystem.sol",
  "compiler": {
    "name": "solc",
    "version": "0.8.0+commit.c7dfd78e.Emscripten.clang"
  },
  "schemaVersion": "3.4.16",
  "updatedAt": "2024-12-04T21:11:16.585Z",
  "devdoc": {
    "kind": "dev",
    "methods": {},
    "version": 1
  },
  "userdoc": {
    "kind": "user",
    "methods": {},
    "version": 1
  }
}